:020000040800F2
:1000000000000220291A0008711A0008711A00085D
:10001000711A0008711A0008711A00080000000027
:10002000000000000000000000000000711A00083D
:10003000711A000800000000711A0008711A000807
:1000400000000000000000000000000000000000B0
:1000500000000000000000000000000000000000A0
:100060000000000000000000000000000000000090
:100070000000000000000000000000000000000080
:100080000000000000000000000000000000000070
:100090000000000000000000000000000000000060
:1000A0000000000000000000000000000000000050
:1000B0000000000000000000000000000000000040
:1000C0000000000000000000000000000000000030
:1000D0000000000000000000000000000000000020
:1000E0000000000000000000000000000000000010
:1000F0000000000000000000000000000000000000
:1001000000000000000000000000000000000000EF
:1001100000000000000000000000000000000000DF
:1001200000000000000000000000000000000000CF
:1001300000000000000000000000000000000000BF
:1001400000000000000000000000000000000000AF
:10015000000000000000000000000000000000009F
:10016000000000000000000000000000000000008F
:10017000000000000000000000000000000000007F
:08018000000000000000000077
:100188000348044B834202D0034B03B1184770471E
:100198003804002038040020000000000548064903
:1001A8000B1AD90F01EBA301491002D0034B03B17D
:1001B8001847704738040020380400200000000069
:1001C80010B5064C237843B9FFF7DAFF044B13B197
:1001D8000448AFF300800123237010BD38040020C9
:1001E80000000000881A000808B5044B1BB1044938
:1001F8000448AFF30080BDE80840CFE700000000E6
:100208003C040020881A0008002301461A461846B4
:1002180000F08EB838B50A4C0A4D641BA4100AD0F9
:1002280004F18043013B05EB8305013C55F8043993
:100238009847002CF9D1BDE8384001F027BC00BF31
:10024800FC3C0008F83C000870B50D4E0D4D761BBF
:10025800B61006D00024013455F8043B9847A6424E
:10026800F9D1094E094D761B01F00AFCB61006D0EB
:100278000024013455F8043B9847A642F9D170BDD3
:10028800F03C0008F03C0008F83C0008F03C00088E
:10029800F0B4860746D0541E002A3CD0CAB20346A2
:1002A80002E014F1FF3436D303F8012B9D07F8D18F
:1002B800032C29D9CDB245EA05250F2C45EA054579
:1002C80033D9A4F11006360903F1200707EB061706
:1002D80003F1100242E9045542E902551032BA42CC
:1002E800F8D1721C14F00C0F03EB021204F00F0685
:1002F80013D0331F23F003030433134442F8045B81
:100308009342FBD106F003042CB1C9B21C4403F894
:10031800011B9C42FBD1F0BC704734461346002CAD
:10032800F3D1F8E714460346C2E71A462646E0E743
:10033800F0B4184C2568D5F8484114B365681F2DEA
:1003480024DC38B9AB1C0135656044F82310002063
:10035800F0BC704704EB85060127C6F8882007FA29
:1003680005F2D4F88871022847EA0207C4F88871B0
:10037800C6F80831E6D1D4F88C311A43C4F88C2178
:10038800E0E705F5A674C5F84841D7E74FF0FF3018
:10039800DEE700BFD83C00080020704702784378A9
:1003A80043EA0223014A002013807047000000201E
:1003B80008B500F0E5FE002008BD08B500F0D0FE45
:1003C800002008BD10B5044600F0C8FE00F042FA4F
:1003D800204600F0CDFE00F045FA204600F0BFFEB2
:1003E80022461021722000F0DDF8002010BD000028
:1003F80070B5044600F0B2FE0B4E00253388AB42C0
:1004080009D8204600F0ABFE22461021722000F0E9
:10041800C9F8002070BD00F01DFA204600F0A8FEC3
:10042800013500F01FFAE9E7000000201FB51E4B58
:100438006A4603F11006154618685968144603C43D
:100448000833B3422246F7D100F068F900F0A6F964
:1004580000F0E0F900F07CFE284600F081FE00F094
:1004680089F8124A10216B2000F080F8104A1021F8
:10047800702000F07BF80F4A0021782000F076F811
:100488000D4A012312216D2000F05AF80B4A02216F
:10049800732000F06BF80A4A1021662000F066F815
:1004A80000F0DAF8FCE700BFDC3C0008C3030008F2
:1004B800CD030008A1030008B9030008A50300083C
:1004C800F903000801207047F0B500234F1C834250
:1004D80001DB002020E017F8135011F81340A5F1B4
:1004E8003006F6B2092E0BD8D654A4F13005EEB278
:1004F800092E14D8D45C44EA0514D4540133E6E731
:10050800A5F14106052E02D8373DD554EDE7A5F1F2
:100518006106052E01D90120F0BD573DF5E7A4F18C
:100528004105052D02D8A4F13705E3E7A4F16105DB
:10053800052DF0D8D55C573C45EA0414DDE70000EA
:1005480070B5094E34680F2C0BDCBF2909D806EBAF
:100558000415C5E90212013428712B743460002097
:1005680070BD0120FCE700BF540400200023FFF702
:10057800E7BF000008B5084A00217620FFF7F6FF1C
:10058800064A00217720FFF7F1FFBDE80840044A3A
:1005980000217920FFF7EABFCD0400081106000802
:1005A800ED050008F8B514460E4600F075F90C4F35
:1005B800651EC4F1010463199E4204DCBDE8F840DD
:1005C8000A2000F069B915F8013F1B09F85C00F032
:1005D80063F92B7803F00F03F85C00F05DF9EAE7A4
:1005E800A01A000807B5074B0DF107021B688DF824
:1005F800073001217220FFF7D5FF002003B05DF816
:1006080004FB00BF5404002070B5124801688CB088
:10061800CDB20024E3B2AB4204F1010409DB01EBE3
:1006280041016A46C9B27220FFF7BCFF00200CB036
:1006380070BD03EB43020CAE00EB031332441E798A
:1006480002F8306C9E681B7C02F82F6C02F82E3C76
:10065800E0E700BF540400202DE9F0412E4CADF531
:10066800127D00F007F922680023211D9A4204DC5C
:1006780007D10DF5127DBDE8F0811D016D5C854245
:100688003DD104EB03151E012B7CDB0714D5002399
:100698008DF8083000F0EEF88DF8C80000F0EAF8A0
:1006A80002AA8DF8C90032A90120FFF70DFF002822
:1006B800DFD19DF80830AB600025A7190DF1C808F7
:1006C800BB68B5EB430F1CD300F0D4F80A2801D05F
:1006D8000D28CED1344402AAA56832A92846FFF7CE
:1006E800F3FE0028C5D1E9B2E36802A8984701AA39
:1006F8008DF8040001217A20FFF754FFB9E7013390
:10070800B4E700F0B7F80A28B3D00D28B1D005F83F
:1007180008000135D4E700BF5404002030B5032297
:1007280093B04FF4A023CDE9062302214FF48003B0
:10073800CDE90C130C20C423CDE90E0304240723B0
:10074800012506A8CDE91043099500F0BDF8044637
:1007580000B1FEE70146CDE903000F23059001A88B
:10076800CDE9013500F050FA094B00945A6B09485D
:1007780042F040025A635B6B03F040030093009B16
:10078800054B0360447100F0C5FC13B030BD00BFD9
:10079800003802405C0500200008065030B50223EE
:1007A80089B04FF4C062CDE903230122CDE90523C6
:1007B800144C15480025072301950793236B134311
:1007C8002363236B1340019303A9019B00F0B4FA40
:1007D8000E480F4902954FF41643C0E90013C0E9CB
:1007E80002550C23056185614361636C43F0100376
:1007F8006364636C03F010030293029B00F08AFBAE
:1008080009B030BD003802400000024078050020E1
:10081800001001407FB50D4B0D48002100911A6B67
:1008280042F001021A631B6B039103F0010300936A
:10083800009B4FF480520123CDE9012301A9022333
:10084800049300F079FA07B05DF804FB0038024021
:1008580000000240024801224FF4805100F054BBCE
:1008680000000240024800224FF4805100F04CBBC7
:100878000000024013B5074C41F2883301220DF104
:100888000701204600F0F9FB0028F5D19DF8070084
:1008980002B010BD7805002007B541F288338DF805
:1008A800070001220DF10701024800F0A1FB03B087
:1008B8005DF804FB78050020024B1868421C1A609A
:1008C800704700BF580500200368F7B5DD070146EB
:1008D8003BD40B689C0700F18B800B681B0700F169
:1008E800D6800B685F072AD500230193904B914C63
:1008F8001A6C42F080521A641B6C03F08053019307
:10090800019B236843F480732360FFF7D5FF0546F6
:100918002368DA0540F1DD808B68854C012B40F0B7
:10092800DF80236F43F001032367FFF7C5FF804D86
:10093800044641F288362B6F9B0740F1F2808A69A2
:10094800002A40F0FF80002015E0794B9A6802F0F9
:100958000C02042A07D09A6802F00C02082A0CD16B
:100968005A68500209D5724B1B689A03B1D54B6877
:10097800002BAED1012003B0F0BD4A68B2F5803F2C
:1009880012D11A6842F480321A60FFF795FF684D59
:10099800694E04462B689B039BD4FFF78DFF001B11
:1009A800B042F7D90320E6E7614CB2F5A02F2368DF
:1009B80007D143F480232360236843F48033236002
:1009C800E3E723F480332360236823F48023236040
:1009D800002ADAD1FFF770FF574E054623689F03B8
:1009E8007FF577AFFFF768FF401BB042F6D9D9E72C
:1009F8004F4B9A6812F00C0F07D09A6802F00C025D
:100A0800082A16D15B685D0213D4494B1A6894070B
:100A180002D5CA68012AADD11C68F82292FAA2F25E
:100A2800B2FA82F00A69824024F0F80002431A60A0
:100A380053E7CA68414BDAB101221A60FFF73CFF5D
:100A48003B4C0546236898070CD52068F82393FA91
:100A5800A3F3B3FA83F20B69934020F0F80213432F
:100A680023603AE7FFF728FF401B0228EAD999E7F5
:100A78001A60FFF721FF2E4D04462B689A077FF571
:100A88002CAFFFF719FF001B0228F6D98AE74A693D
:100A98002B4B7AB101221A60FFF70EFF244D044652
:100AA8006B6F9E073FF51DAFFFF706FF001B02287F
:100AB800F6D977E71A60FFF7FFFE1D4D04466B6F06
:100AC80098077FF50EAFFFF7F7FE001B0228F6D94F
:100AD80068E7FFF7F1FE401B02287FF619AF61E7D0
:100AE800052B04D1236F43F00403236719E7226F12
:100AF80022F001022267226F22F004022267002BF3
:100B08007FF413AFFFF7D8FE41F288360546236F0E
:100B18009F077FF514AFFFF7CFFE401BB042F6D911
:100B280040E7FFF7C9FE001BB0427FF604AF39E784
:100B3800003802400070004000E1F505000047421F
:100B4800800E47422D4CA36803F00C03082B3FF49A
:100B580011AF2B4D0023022A2B6040D1FFF7ACFECA
:100B6800284F06462368980133D447F6C07797FA8A
:100B7800A7F74FF44032B7FA87F792FAA2F24FF08C
:100B88007060B2FA82F690FAA0F0D1E90732134306
:100B98004A6A02FA07F78A6A5208013AB2403B43A6
:100BA8001343CA6AB0FA80F002FA00F003436360A4
:100BB80001232B60FFF780FE104C124D014623687D
:100BC8009A013FF5C0AEFFF777FE401AA842F6D962
:100BD800E8E6FFF771FE801BB842C3D9E2E6FFF7EB
:100BE8006BFE084D014623689B017FF5ACAEFFF70D
:100BF80063FE401AA842F6D9D4E600BF0038024086
:100C08006000474280841E00F8B5494B1A6802F01C
:100C18000F028A4205461AD32A68900720D4D207C1
:100C280026D4434B1A6802F00F028A4270D828680B
:100C3800430775D410F0080011D03E4A296993681B
:100C480023F4604343EAC1039360002007E0CAB27B
:100C58001A701B6803F00F038B42DDD00120F8BD2A
:100C68003448AC68836823F0F00323438360D6E7F5
:100C78006A68304B012A1DD11B6813F4003FEDD080
:100C88002C4CA36823F003031343A360FFF714FE5F
:100C98006B68012B064641F2883715D1A36803F02B
:100CA8000C03042BBDD0FFF707FE801BB842F5D913
:100CB8000320D4E7901E01281B6802D813F0007F98
:100CC800DDE713F0020FDAE7022B0AD1A36803F07D
:100CD8000C03082BA5D0FFF7EFFD801BB842F5D910
:100CE800E6E7032B0FD1A36803F00C030C2B98D075
:100CF800FFF7E2FD801BB842F5D9D9E7FFF7DCFD25
:100D0800801BB842D4D8A36813F00C0FF6D188E73B
:100D1800CAB21A701B6803F00F038B429ED186E794
:100D28000449EB688A6822F4E0521A438A6081E732
:100D3800003C0240003802402DE9F04F6E4ADFF8CF
:100D4800C081DFF8C09185B000230C6801279F405F
:100D580007EA040537EA040440F0B9804C6824F037
:100D6800100ABAF1020F16D14FEAD30E00EB8E0E1D
:100D780003F0070BDEF820604FEA8B0B4FF00F0CE7
:100D88000CFA0BFC26EA0C0C0E6906FA0BF646EA7E
:100D98000C06CEF82060D0F800B04FEA430E4FF0B2
:100DA800030C0CFA0EFC6FEA0C062BEA0C0B04F091
:100DB800030C0CFA0EFC0AF1FF3A4CEA0B0CBAF1E0
:100DC800010F0196C0F800C015D8D0F808C006EA8F
:100DD8000C0CCE6806FA0EFA4AEA0C0CC0F808C0E9
:100DE800D0F804C02CEA0707C4F3001C0CFA03FC73
:100DF8004CEA07074760C768019E37408E6806FAC5
:100E08000EF63E43C660E60061D54FF0000BCDF804
:100E18000CB0D8F84470394E47F48047C8F844708D
:100E2800D8F8447007F480470397039F23F003071B
:100E380007F1804707F59C3703F0030ED7F808A0A1
:100E48004FEA8E0E4FF00F0C0CFA0EFCB0422AEA55
:100E58000C0C43D006F58066B04241D006F580669A
:100E6800B0423FD006F58066B0423DD006F58066B8
:100E7800B0423BD048453BD006F50066B04239D079
:100E880006F58066B0420CBF0726082606FA0EF65D
:100E980046EA0C06BE601668EF4314F4803F0CBFA8
:100EA8003E402E431660566814F4003F0CBF3E4087
:100EB8002E435660966814F4801F0CBF3E402E43A4
:100EC8009660D668A40254BF3E402E43D6600133D4
:100ED800102B7FF43AAF05B0BDE8F08F5E46D5E73A
:100EE8000126D3E70226D1E70326CFE70426CDE77C
:100EF8000526CBE70626C9E7003C01400000024072
:100F080000380240001402400AB1816170470904A8
:100F1800FBE7000070B5002866D090F8393003F080
:100F2800FF020BB980F838200168C2680569C469F6
:100F3800242380F83930CB6823F40053CB600B6945
:100F480023F4405313430B618368CA682B434569F4
:100F580022F416422B4322F00C0223431343CB60A6
:100F68004B69826923F440731343B4F5004F4B6116
:100F78001E4A43684FF0640528D15B00B2FBF3F2C8
:100F8800B2FBF5F605FB1622D3003233B3FBF5F3BB
:100F980003F007025B0002EB061203F4F873134434
:100FA8008B600B6923F490430B614B6923F02A0390
:100FB8004B61CB6843F40053CB6020220023C3630A
:100FC80080F8392080F83A20184670BD9B00B2FBA3
:100FD800F3F2B2FBF5F605FB16231B013233B3FB24
:100FE800F5F303EB0613DBE70120EEE7906EFB0A4F
:100FF80090F83930202B3ED100293AD0002A38D039
:1010080090F83830012B36D0012380F8383000238F
:10101800C363212380F8393003688284C284C28C78
:1010280092B252B91A685206FCD5202380F839309A
:10103800002380F8383018467047C28C013A92B2C3
:10104800C2848268B2F5805F0CD11A681206FCD59A
:101058000A88C2F308025A6002690AB90231DEE757
:101068000131DCE71A681206FCD511F8012B5A6029
:10107800D5E7012070470220704710B590F83A3044
:10108800202B44D1002940D0002A3ED090F8383097
:10109800012B3CD0012380F838300023C36322237E
:1010A80080F83A308285C285C38D9BB233B920223D
:1010B80080F83A2080F83830184610BDC38D026891
:1010C800013B9BB2C3858368B3F5805F11D1136878
:1010D8009C06FCD50369526833B90B46C2F3080273
:1010E80023F8022B1946DFE70B46D2B223F8012B6F
:1010F800F8E713689B06FCD5046952684B1C0CB9C9
:101108000A70EFE702F07F02FAE70120D5E7022034
:10111800D3E7704710B50446A8B10379012B14D062
:10112800437903F0FF0213B90271FFF7F2FF226857
:1011380002236371136843F0040313600020012342
:101148006371207110BD0120FCE70220FAE700005E
:10115800014800F016B800BFB80500207047704776
:1011680001468022014800F011B800BFB8050020F0
:10117800034602460121014800F046BCB80500209C
:1011880070474FF48C720021FFF782B8C02AF0B57F
:1011980049D0B2F5807F48D0802A40F0E5800A2304
:1011A8000446036000F10803520944F8043F01EBC8
:1011B80082028A423BD103680C2B46D00E2B7CD08E
:1011C8000A2B2ED16A4D00F1A0062946426955F82E
:1011D800044B8768C2F307230B447C4093F82830FC
:1011E800634001EB1264103094F8284083EA04430A
:1011F80051FA82F494F8284083EA0463C2F307445E
:101208000C4494F8284083EA042350F8044C836083
:1012180063400468C360634003615340436186428E
:10122800D4D10020A2E00C23BAE70E23B8E78B78CC
:101238004D781B0443EA05230D782B43CD7843EA08
:10124800056344F8043F0431B3E7494C00F1C00595
:101258002146C26954F8046B8768C2F307230B441C
:101268007E4093F82830734001EB1266183096F8E8
:10127800286083EA064351FA82F696F8286083EAE2
:101288000663C2F307460E4496F8286083EA0623ED
:1012980050F80C6C8360734050F8086CC36073405E
:1012A80050F8046C036173400668436173408361BE
:1012B8005340C3618542CCD1B3E72D4D00F1E00620
:1012C8002946446A55F8042B8768C4F307230B445E
:1012D8007A4093F828308769534001EB1462203034
:1012E80092F8282083EA024351FA84F292F82820DF
:1012F80083EA0263C4F307420A4492F8282083EA87
:10130800022350F8142C8360534050F8102CC3600B
:10131800534050F80C2C0361534051FA83F2436157
:1013280092F828207A4001EB136797F8287082EA30
:101338000762C3F307270F44C3F307430B4497F827
:10134800287093F8283082EA072282EA034350F88B
:10135800042C836153400268C361534003626340B5
:1013680043628642ADD15CE76FF01F00F0BD00BF5D
:10137800B01A00082DE9F04F43680E681C684D68E4
:1013880000688F6866405C6865409C688DB0401056
:10139800013884EA070BCF68D968009003F1300060
:1013A800C24B794050F8107C0197F7B203EB8707DE
:1013B80050F8204C3F6B87EA040E0F0E03EB8707AB
:1013C80050F81C4CD7F830748EEA070EC5F307277F
:1013D80003EB87074FEA156AD7F830788EEA070ECD
:1013E800CBF3074703EB870703EB8A0AD7F8307C70
:1013F800DAF830A48EEA070EEFB203EB8707C5F3DD
:1014080007453F6B87EA040C370E03EB870750F854
:10141800184CD7F830748CEA070CCBF3072703EB8A
:10142800870703EB8505D7F830788CEA070CC1F3FA
:10143800074703EB87075FFA8EF8D7F8307C8CEA0A
:10144800070C5FFA8BF703EB8707CCF307293F6B91
:10145800674087EA0A07C1F3072AC9B203EB81018B
:1014680050F8144C096B03EB8A0A6140DAF830A88B
:101478004FEA1B6403EB840487EA0A07C6F3074AAA
:10148800C6F30726D4F8304403EB86066140D6F845
:1014980030486140D5F8304C03EB8A0A6140DAF8ED
:1014A80030AC50F80C4C0294C1F3074603964FEA4F
:1014B8001E6687EA0A07049650F8086C0596FEB27D
:1014C8000696C1F307260796CEF3074608960D0E33
:1014D8004FEA1C66C9B2099650F8046C0B91009942
:1014E8000A960029C7F3074A5FFA8CF4C7F3072B5B
:1014F800CEF3072ECCF3074C4FEA176700F1200014
:1015080077DC6B4B01989844994498F8286099F8CF
:1015180028109A4446401D4486EA01269AF8281065
:1015280002981C449B4486EA014695F8281094F8D2
:1015380028500A9C86EA01669BF8281016704540D8
:1015480085EA0125039919449E4491F8281085EAF3
:101558000145049919449C4491F8281085EA0165CD
:101568000799157119441F4491F828800699194460
:1015780091F82800059948400899194480EA0820FC
:1015880091F8281080EA01400999194491F8281027
:1015980080EA01600B99194497F8283091F82810CF
:1015A80061409EF8284081EA04219CF8284081EA9D
:1015B800044181EA0363310A5170310C9170360E8F
:1015C800290AD6705171290C9171010A5172010CC6
:1015D80010729172000E190A2D0ED0721373517386
:1015E8000020190C1B0ED5719173D3730DB0BDE893
:1015F800F08F03EB880803EB8505D8F83060D5F841
:10160800301403EB89094E40019903EB8A0A4E40D6
:10161800D9F830184E40DAF8301C4E40049903EBE4
:10162800840403EB8101256BD1F83014099C4D40EB
:1016380003EB8B0B02994D40DBF830184D400399B2
:1016480003EB810103EB8408D1F8301C4D40069967
:1016580003EB810103EB87070C6BD8F83014D7F83C
:1016680030744C4005994C40079903EB810103EB1A
:101678008E0ED1F830184C40089903EB810103EB2A
:101688008C0CD1F8301C84EA010B0B9903EB810117
:10169800096B79400A9F7940DEF830787940DCF8A8
:1016A800307C7940009F013F00977BE6A82B00081B
:1016B800B01A00082DE9F04F43680D681C684E68A1
:1016C80000688F6865405C6866409C688DB0401013
:1016D800013884EA070BCF68D968009003F130001D
:1016E800C74B7940EFB203EB870750F8104CD7F897
:1016F8002871019450F8204C87EA040C370E03EB4C
:10170800870750F8144CD7F828758CEA070CC1F3F2
:10171800072703EB87074FEA116AD7F828798CEA7D
:10172800070CCBF3074703EB870703EB8A0AD7F8C5
:10173800287DDAF828A58CEA070CCFB203EB8707D7
:10174800C1F30741D7F8287187EA040E2F0E03EB7F
:10175800870750F8184CD7F828758EEA070ECBF390
:10176800072703EB870703EB8101D7F82879D1F81E
:10177800281D8EEA070EC6F3074703EB87075FFAB3
:101788008CF8D7F8287D8EEA070E5FFA8BF703EB03
:101798008707CEF30729D7F82871674087EA0A0731
:1017A800C6F3072AF6B203EB8A0A03EB860650F85B
:1017B8001C4CDAF828A9D6F8286187EA0A07664097
:1017C800C5F3074A4FEA1B6403EB8A0A03EB840458
:1017D800C5F30725DAF828ADD4F8284503EB8505C5
:1017E80087EA0A076640D5F82849CEF307450395E6
:1017F8003D0E6640049550F8085C05954E40FDB2D4
:101808000695C6F307250795CCF3074550F80C1C39
:1018180008954FEA1E650291099550F8045C0A95EF
:101828005FFA8EF50B95009D002DC7F3074ACCF3A0
:101838000724C7F3072E4FEA166BF1B2C6F3074722
:101848004FEA1C6C00F1200077DC6E4B019E984437
:10185800994418F8C85C19F8C80C9A44194475409A
:101868009B4411F8C86C029985EA00251AF8C80C3F
:101878001C4485EA00454E401BF8C80C039985EACC
:101888000065194414F8C80C157086EA002611F88A
:10189800C80C0499194486EA004611F8C80C07993F
:1018A800194486EA006611F8C80C0699167119449D
:1018B8009E4411F8C84C05994C400899194484EA8B
:1018C800002411F8C81C0A9884EA014409991944AB
:1018D8001F4411F8C81C84EA01640B9919449C44FC
:1018E80011F8C81C1CF8C83C41401EF8C80C81EA15
:1018F800002117F8C80C81EA004181EA0363290A2C
:101908005170290C91702D0E310AD5705171310C1E
:101918009171210A5172210C9172190A360E1472B2
:101928001373240E51730020190C1B0ED671D47238
:101938009173D3730DB0BDE8F08F03EB880803EB08
:101948008B0BD8F82851DBF8286503EB890975401B
:10195800019E03EB8A0A7540D9F828697540DAF8C0
:10196800286D7540049E03EB810103EB8608D1F8CE
:101978002861D8F8281503EB84044E4002994E409C
:10198800D4F82819099C4E40039903EB810103EB15
:101998008408D1F8281D4E40069903EB810103EB1A
:1019A8008C0CD1F82841D8F82815DCF828C54C400B
:1019B80005994C40079903EB810103EB8E0ED1F892
:1019C80028194C40089903EB810103EB8707D1F8EC
:1019D800281DD7F8287D84EA010B0B990A9C03EB94
:1019E8008101D1F8281181EA0C016140DEF828C98B
:1019F800009C81EA0C01013C7940009472E600BF2A
:101A0800B01A0008A03C000810B40C46012C11467E
:101A18001A4602D110BCFFF7ADBC10BCFFF74ABE96
:101A2800002103E00B4B5B58435004310A480B4B31
:101A380042189A42F6D30A4A02E00023136004329D
:101A4800084B9A42F9D3AFF30080FEF7FDFBFEF78F
:101A5800EDFCFEE7FC3C00080000002038040020F4
:101A680038040020D0060020FEE70000024B13B126
:101A78000248FEF7C9BB7047000000001D020008BD
:101A8800F8B500BFF8BC08BC9E467047F8B500BF63
:081A9800F8BC08BC9E46704733
:101AA0003031323334353637383941424344454694
:101AB0000100000002000000040000000800000017
:101AC0001000000020000000400000008000000026
:101AD0001B00000036000000637C777BF26B6FC553
:101AE0003001672BFED7AB76CA82C97DFA5947F021
:101AF000ADD4A2AF9CA472C0B7FD9326363FF7CCFD
:101B000034A5E5F171D8311504C723C31896059A99
:101B1000071280E2EB27B27509832C1A1B6E5AA0BC
:101B2000523BD6B329E32F8453D100ED20FCB15BA7
:101B30006ACBBE394A4C58CFD0EFAAFB434D338510
:101B400045F9027F503C9FA851A3408F929D38F5E4
:101B5000BCB6DA2110FFF3D2CD0C13EC5F9744171B
:101B6000C4A77E3D645D197360814FDC222A908892
:101B700046EEB814DE5E0BDBE0323A0A4906245C1E
:101B8000C2D3AC629195E479E7C8376D8DD54EA983
:101B90006C56F4EA657AAE08BA78252E1CA6B4C64F
:101BA000E8DD741F4BBD8B8A703EB5664803F60EA8
:101BB000613557B986C11D9EE1F8981169D98E9497
:101BC0009B1E87E9CE5528DF8CA1890DBFE64268B0
:101BD00041992D0FB054BB1651F4A7507E41655367
:101BE0001A17A4C33A275E963BAB6BCB1F9D45F1FA
:101BF000ACFA58AB4BE303932030FA55AD766DF653
:101C000088CC7691F5024C254FE5D7FCC52ACBD779
:101C100026354480B562A38FDEB15A4925BA1B67C9
:101C200045EA0E985DFEC0E1C32F7502814CF012AB
:101C30008D4697A36BD3F9C6038F5FE715929C95EA
:101C4000BF6D7AEB955259DAD4BE832D587421D3E7
:101C500049E069298EC9C84475C2896AF48E7978C9
:101C600099583E6B27B971DDBEE14FB6F088AD17CC
:101C7000C920AC667DCE3AB463DF4A18E51A3182DA
:101C80009751336062537F45B16477E0BB6BAE849C
:101C9000FE81A01CF9082B94704868588F45FD19E7
:101CA00094DE6C87527BF8B7AB73D323724B02E29E
:101CB000E31F8F576655AB2AB2EB28072FB5C20337
:101CC00086C57B9AD33708A5302887F223BFA5B2F3
:101CD00002036ABAED16825C8ACF1C2BA779B492F4
:101CE000F307F2F04E69E2A165DAF4CD0605BED540
:101CF000D134621FC4A6FE8A342E539DA2F355A090
:101D0000058AE132A4F6EB750B83EC394060EFAA4B
:101D10005E719F06BD6E10513E218AF996DD063D2B
:101D2000DD3E05AE4DE6BD4691548DB571C45D05F1
:101D30000406D46F605015FF1998FB24D6BDE997AF
:101D4000894043CC67D99E77B0E842BD07898B882C
:101D5000E7195B3879C8EEDBA17C0A477C420FE9C2
:101D6000F8841EC90000000009808683322BED48EC
:101D70001E1170AC6C5A724EFD0EFFFB0F8538566B
:101D80003DAED51E362D39270A0FD964685CA621D1
:101D90009B5B54D124362E3A0C0A67B19357E70F58
:101DA000B4EE96D21B9B919E80C0C54F61DC20A2F1
:101DB0005A774B691C121A16E293BA0AC0A02AE598
:101DC0003C22E043121B171D0E090D0BF28BC7AD11
:101DD0002DB6A8B9141EA9C857F11985AF75074CBF
:101DE000EE99DDBBA37F60FDF701269F5C72F5BC19
:101DF00044663BC55BFB7E348B432976CB23C6DC34
:101E0000B6EDFC68B8E4F163D731DCCA42638510F3
:101E10001397224084C61120854A247DD2BB3DF809
:101E2000AEF93211C729A16D1D9E2F4BDCB230F3E4
:101E30000D8652EC77C1E3D02BB3166CA970B9991B
:101E4000119448FA47E96422A8FC8CC4A0F03F1A18
:101E5000567D2CD8223390EF87494EC7D938D1C14F
:101E60008CCAA2FE98D40B36A6F581CFA57ADE28BF
:101E7000DAB78E263FADBFA42C3A9DE45078920D80
:101E80006A5FCC9B547E4662F68D13C290D8B8E848
:101E90002E39F75E82C3AFF59F5D80BE69D0937C1B
:101EA0006FD52DA9CF2512B3C8AC993B10187DA7CB
:101EB000E89C636EDB3BBB7BCD2678096E5918F43A
:101EC000EC9AB701834F9AA8E6956E65AAFFE67E65
:101ED00021BCCF08EF15E8E6BAE79BD94A6F36CEAA
:101EE000EA9F09D429B07CD631A4B2AF2A3F23316E
:101EF000C6A5943035A266C0744EBC37FC82CAA613
:101F0000E090D0B033A7D815F104984A41ECDAF745
:101F10007FCD500E1791F62F764DD68D43EFB04DF5
:101F2000CCAA4D54E49604DF9ED1B5E34C6A881BDD
:101F3000C12C1FB84665517F9D5EEA04018C355D5A
:101F4000FA877473FB0B412EB3671D5A92DBD25292
:101F5000E91056336DD647139AD7618C37A10C7AA6
:101F600059F8148EEB133C89CEA927EEB761C93519
:101F7000E11CE5ED7A47B13C9CD2DF5955F2733F45
:101F80001814CE7973C737BF53F7CDEA5FFDAA5B4C
:101F9000DF3D6F147844DB86CAAFF381B968C43E75
:101FA0003824342CC2A3405F161DC372BCE2250C3A
:101FB000283C498BFF0D954139A80171080CB3DE0F
:101FC000D8B4E49C6456C1907BCB8461D532B670A2
:101FD000486C5C74D0B85742F4A750514165537EA9
:101FE00017A4C31A275E963AAB6BCB3B9D45F11FF6
:101FF000FA58ABACE303934B30FA5520766DF6AD4F
:10200000CC769188024C25F5E5D7FC4F2ACBD7C575
:102010003544802662A38FB5B15A49DEBA1B6725C5
:10202000EA0E9845FEC0E15D2F7502C34CF01281A7
:102030004697A38DD3F9C66B8F5FE703929C9515E6
:102040006D7AEBBF5259DA95BE832DD47421D358E3
:10205000E0692949C9C8448EC2896A758E7978F4C5
:10206000583E6B99B971DD27E14FB6BE88AD17F0C8
:1020700020AC66C9CE3AB47DDF4A18631A3182E5D6
:1020800051336097537F45626477E0B16BAE84BB98
:1020900081A01CFE082B94F94868587045FD198FE3
:1020A000DE6C87947BF8B75273D323AB4B02E2729A
:1020B0001F8F57E355AB2A66EB2807B2B5C2032F33
:1020C000C57B9A863708A5D32887F230BFA5B223EF
:1020D000036ABA0216825CEDCF1C2B8A79B492A7F0
:1020E00007F2F0F369E2A14EDAF4CD6505BED5063C
:1020F00034621FD1A6FE8AC42E539D34F355A0A28C
:102100008AE13205F6EB75A483EC390B60EFAA4047
:10211000719F065E6E1051BD218AF93EDD063D9627
:102120003E05AEDDE6BD464D548DB591C45D0571ED
:1021300006D46F045015FF6098FB2419BDE997D6AB
:102140004043CC89D99E7767E842BDB0898B880728
:10215000195B38E7C8EEDB797C0A47A1420FE97CBE
:10216000841EC9F800000000808683092BED4832E8
:102170001170AC1E5A724E6C0EFFFBFD8538560F67
:10218000AED51E3D2D3927360FD9640A5CA62168CD
:102190005B54D19B362E3A240A67B10C57E70F9354
:1021A000EE96D2B49B919E1BC0C54F80DC20A261ED
:1021B000774B695A121A161C93BA0AE2A02AE5C094
:1021C00022E0433C1B171D12090D0B0E8BC7ADF20D
:1021D000B6A8B92D1EA9C814F119855775074CAFBB
:1021E00099DDBBEE7F60FDA301269FF772F5BC5C15
:1021F000663BC544FB7E345B4329768B23C6DCCB30
:10220000EDFC68B6E4F163B831DCCAD763851042EF
:1022100097224013C61120844A247D85BB3DF8D205
:10222000F93211AE29A16DC79E2F4B1DB230F3DCE0
:102230008652EC0DC1E3D077B3166C2B70B999A917
:102240009448FA11E9642247FC8CC4A8F03F1AA014
:102250007D2CD8563390EF22494EC78738D1C1D94B
:10226000CAA2FE8CD40B3698F581CFA67ADE28A5BB
:10227000B78E26DAADBFA43F3A9DE42C78920D507C
:102280005FCC9B6A7E4662548D13C2F6D8B8E89044
:1022900039F75E2EC3AFF5825D80BE9FD0937C6917
:1022A000D52DA96F2512B3CFAC993BC8187DA710C7
:1022B0009C636EE83BBB7BDB267809CD5918F46E36
:1022C0009AB701EC4F9AA883956E65E6FFE67EAA61
:1022D000BCCF082115E8E6EFE79BD9BA6F36CE4AA6
:1022E0009F09D4EAB07CD629A4B2AF313F23312A6A
:1022F000A59430C6A266C0354EBC377482CAA6FC0F
:1023000090D0B0E0A7D8153304984AF1ECDAF74141
:10231000CD500E7F91F62F174DD68D76EFB04D43F1
:10232000AA4D54CC9604DFE4D1B5E39E6A881B4CD9
:102330002C1FB8C165517F465EEA049D8C355D0156
:10234000877473FA0B412EFB671D5AB3DBD252928E
:10235000105633E9D647136DD7618C9AA10C7A37A2
:10236000F8148E59133C89EBA927EECE61C935B715
:102370001CE5EDE147B13C7AD2DF599CF2733F5541
:1023800014CE7918C737BF73F7CDEA53FDAA5B5F48
:102390003D6F14DF44DB8678AFF381CA68C43EB971
:1023A00024342C38A3405FC21DC37216E2250CBC36
:1023B0003C498B280D9541FFA80171390CB3DE080B
:1023C000B4E49CD856C19064CB84617B32B670D59E
:1023D0006C5C7448B85742D05051F4A7537E4165A5
:1023E000C31A17A4963A275ECB3BAB6BF11F9D45F2
:1023F000ABACFA58934BE303552030FAF6AD766D4B
:102400009188CC7625F5024CFC4FE5D7D7C52ACB71
:10241000802635448FB562A349DEB15A6725BA1BC1
:102420009845EA0EE15DFEC002C32F7512814CF0A3
:10243000A38D4697C66BD3F9E7038F5F9515929CE2
:10244000EBBF6D7ADA9552592DD4BE83D3587421DF
:102450002949E069448EC9C86A75C28978F48E79C1
:102460006B99583EDD27B971B6BEE14F17F088ADC4
:1024700066C920ACB47DCE3A1863DF4A82E51A31D2
:10248000609751334562537FE0B1647784BB6BAE94
:102490001CFE81A094F9082B58704868198F45FDDF
:1024A0008794DE6CB7527BF823AB73D3E2724B0296
:1024B00057E31F8F2A6655AB07B2EB28032FB5C22F
:1024C0009A86C57BA5D33708F2302887B223BFA5EB
:1024D000BA02036A5CED16822B8ACF1C92A779B4EC
:1024E000F0F307F2A14E69E2CD65DAF4D50605BE38
:1024F0001FD134628AC4A6FE9D342E53A0A2F35588
:1025000032058AE175A4F6EB390B83ECAA4060EF43
:10251000065E719F51BD6E10F93E218A3D96DD0623
:10252000AEDD3E05464DE6BDB591548D0571C45DE9
:102530006F0406D4FF605015241998FB97D6BDE9A7
:10254000CC8940437767D99EBDB0E8428807898B24
:1025500038E7195BDB79C8EE47A17C0AE97C420FBA
:10256000C9F8841E000000008309808648322BEDE4
:10257000AC1E11704E6C5A72FBFD0EFF560F853863
:102580001E3DAED527362D39640A0FD921685CA6C9
:10259000D19B5B543A24362EB10C0A670F9357E750
:1025A000D2B4EE969E1B9B914F80C0C5A261DC20E9
:1025B000695A774B161C121A0AE293BAE5C0A02A90
:1025C000433C22E01D121B170B0E090DADF28BC709
:1025D000B92DB6A8C8141EA98557F1194CAF7507B7
:1025E000BBEE99DDFDA37F609FF70126BC5C72F511
:1025F000C544663B345BFB7E768B4329DCCB23C62C
:1026000068B6EDFC63B8E4F1CAD731DC10426385EB
:10261000401397222084C6117D854A24F8D2BB3D01
:1026200011AEF9326DC729A14B1D9E2FF3DCB230DC
:10263000EC0D8652D077C1E36C2BB31699A970B913
:10264000FA1194482247E964C4A8FC8C1AA0F03F10
:10265000D8567D2CEF223390C787494EC1D938D147
:10266000FE8CCAA23698D40BCFA6F58128A57ADEB7
:1026700026DAB78EA43FADBFE42C3A9D0D50789278
:102680009B6A5FCC62547E46C2F68D13E890D8B840
:102690005E2E39F7F582C3AFBE9F5D807C69D09313
:1026A000A96FD52DB3CF25123BC8AC99A710187DC3
:1026B0006EE89C637BDB3BBB09CD2678F46E591832
:1026C00001EC9AB7A8834F9A65E6956E7EAAFFE65D
:1026D0000821BCCFE6EF15E8D9BAE79BCE4A6F36A2
:1026E000D4EA9F09D629B07CAF31A4B2312A3F2366
:1026F00030C6A594C035A26637744EBCA6FC82CA0B
:10270000B0E090D01533A7D84AF10498F741ECDA3D
:102710000E7FCD502F1791F68D764DD64D43EFB0ED
:1027200054CCAA4DDFE49604E39ED1B51B4C6A88D5
:10273000B8C12C1F7F466551049D5EEA5D018C3552
:1027400073FA87742EFB0B415AB3671D5292DBD28A
:1027500033E91056136DD6478C9AD7617A37A10C9E
:102760008E59F81489EB133CEECEA92735B761C911
:10277000EDE11CE53C7A47B1599CD2DF3F55F2733D
:10278000791814CEBF73C737EA53F7CD5B5FFDAA44
:1027900014DF3D6F867844DB81CAAFF33EB968C46D
:1027A0002C3824345FC2A34072161DC30CBCE22532
:1027B0008B283C4941FF0D957139A801DE080CB307
:1027C0009CD8B4E4906456C1617BCB8470D532B69A
:1027D00074486C5C42D0B857A75051F465537E41A1
:1027E000A4C31A175E963A276BCB3BAB45F11F9DEE
:1027F00058ABACFA03934BE3FA5520306DF6AD7647
:10280000769188CC4C25F502D7FC4FE5CBD7C52A6D
:1028100044802635A38FB5625A49DEB11B6725BABD
:102820000E9845EAC0E15DFE7502C32FF012814C9F
:1028300097A38D46F9C66BD35FE7038F9C951592DE
:102840007AEBBF6D59DA9552832DD4BE21D35874DB
:10285000692949E0C8448EC9896A75C27978F48EBD
:102860003E6B995871DD27B94FB6BEE1AD17F088C0
:10287000AC66C9203AB47DCE4A1863DF3182E51ACE
:10288000336097517F45625377E0B164AE84BB6B90
:10289000A01CFE812B94F90868587048FD198F45DB
:1028A0006C8794DEF8B7527BD323AB7302E2724B92
:1028B0008F57E31FAB2A66552807B2EBC2032FB52B
:1028C0007B9A86C508A5D33787F23028A5B223BFE7
:1028D0006ABA0203825CED161C2B8ACFB492A779E8
:1028E000F2F0F307E2A14E69F4CD65DABED5060534
:1028F000621FD134FE8AC4A6539D342E55A0A2F384
:10290000E132058AEB75A4F6EC390B83EFAA40603F
:102910009F065E711051BD6E8AF93E21063D96DD1F
:1029200005AEDD3EBD464DE68DB591545D0571C4E5
:10293000D46F040615FF6050FB241998E997D6BDA3
:1029400043CC89409E7767D942BDB0E88B88078920
:102950005B38E719EEDB79C80A47A17C0FE97C42B6
:102960001EC9F8840000000086830980ED48322BE0
:1029700070AC1E11724E6C5AFFFBFD0E38560F855F
:10298000D51E3DAE3927362DD9640A0FA621685CC5
:1029900054D19B5B2E3A243667B10C0AE70F93574C
:1029A00096D2B4EE919E1B9BC54F80C020A261DCE5
:1029B0004B695A771A161C12BA0AE2932AE5C0A08C
:1029C000E0433C22171D121B0D0B0E09C7ADF28B05
:1029D000A8B92DB6A9C8141E198557F1074CAF75B3
:1029E000DDBBEE9960FDA37F269FF701F5BC5C720D
:1029F0003BC544667E345BFB29768B43C6DCCB2328
:102A0000FC68B6EDF163B8E4DCCAD73185104263E7
:102A100022401397112084C6247D854A3DF8D2BBFD
:102A20003211AEF9A16DC7292F4B1D9E30F3DCB2D8
:102A300052EC0D86E3D077C1166C2BB3B999A9700F
:102A400048FA1194642247E98CC4A8FC3F1AA0F00C
:102A50002CD8567D90EF22334EC78749D1C1D93843
:102A6000A2FE8CCA0B3698D481CFA6F5DE28A57AB3
:102A70008E26DAB7BFA43FAD9DE42C3A920D507874
:102A8000CC9B6A5F4662547E13C2F68DB8E890D83C
:102A9000F75E2E39AFF582C380BE9F5D937C69D00F
:102AA0002DA96FD512B3CF25993BC8AC7DA71018BF
:102AB000636EE89CBB7BDB3B7809CD2618F46E592E
:102AC000B701EC9A9AA8834F6E65E695E67EAAFF59
:102AD000CF0821BCE8E6EF159BD9BAE736CE4A6F9E
:102AE00009D4EA9F7CD629B0B2AF31A423312A3F62
:102AF0009430C6A566C035A2BC37744ECAA6FC8207
:102B0000D0B0E090D81533A7984AF104DAF741EC39
:102B1000500E7FCDF62F1791D68D764DB04D43EFE9
:102B20004D54CCAA04DFE496B5E39ED1881B4C6AD1
:102B30001FB8C12C517F4665EA049D5E355D018C4E
:102B40007473FA87412EFB0B1D5AB367D25292DB86
:102B50005633E91047136DD6618C9AD70C7A37A19A
:102B6000148E59F83C89EB1327EECEA9C935B7610D
:102B7000E5EDE11CB13C7A47DF599CD2733F55F239
:102B8000CE79181437BF73C7CDEA53F7AA5B5FFD40
:102B90006F14DF3DDB867844F381CAAFC43EB96869
:102BA000342C3824405FC2A3C372161D250CBCE22E
:102BB000498B283C9541FF0D017139A8B3DE080C03
:102BC000E49CD8B4C190645684617BCBB670D53296
:102BD0005C74486C5742D0B8C66363A5F87C7C84AB
:102BE000EE777799F67B7B8DFFF2F20DD66B6BBD9E
:102BF000DE6F6FB191C5C5546030305002010103E2
:102C0000CE6767A9562B2B7DE7FEFE19B5D7D76295
:102C10004DABABE6EC76769A8FCACA451F82829D91
:102C200089C9C940FA7D7D87EFFAFA15B25959EB87
:102C30008E4747C9FBF0F00B41ADADECB3D4D46780
:102C40005FA2A2FD45AFAFEA239C9CBF53A4A4F7AB
:102C5000E47272969BC0C05B75B7B7C2E1FDFD1C04
:102C60003D9393AE4C26266A6C36365A7E3F3F41E2
:102C7000F5F7F70283CCCC4F6834345C51A5A5F44A
:102C8000D1E5E534F9F1F108E2717193ABD8D8736D
:102C9000623131532A15153F0804040C95C7C752F9
:102CA000462323659DC3C35E30181828379696A126
:102CB0000A05050F2F9A9AB50E0707092412123636
:102CC0001B80809BDFE2E23DCDEBEB264E272769A0
:102CD0007FB2B2CDEA75759F1209091B1D83839ED1
:102CE000582C2C74341A1A2E361B1B2DDC6E6EB227
:102CF000B45A5AEE5BA0A0FBA45252F6763B3B4D71
:102D0000B7D6D6617DB3B3CE5229297BDDE3E33E4E
:102D10005E2F2F7113848497A65353F5B9D1D168D0
:102D200000000000C1EDED2C40202060E3FCFC1F02
:102D300079B1B1C8B65B5BEDD46A6ABE8DCBCB46C8
:102D400067BEBED97239394B944A4ADE984C4CD48E
:102D5000B05858E885CFCF4ABBD0D06BC5EFEF2A2B
:102D60004FAAAAE5EDFBFB16864343C59A4D4DD706
:102D700066333355118585948A4545CFE9F9F910B5
:102D800004020206FE7F7F81A05050F0783C3C4454
:102D9000259F9FBA4BA8A8E3A25151F35DA3A3FEC0
:102DA000804040C0058F8F8A3F9292AD219D9DBC8F
:102DB00070383848F1F5F50463BCBCDF77B6B6C1AE
:102DC000AFDADA754221216320101030E5FFFF1AD7
:102DD000FDF3F30EBFD2D26D81CDCD4C180C0C1487
:102DE00026131335C3ECEC2FBE5F5FE1359797A236
:102DF000884444CC2E17173993C4C45755A7A7F25B
:102E0000FC7E7E827A3D3D47C86464ACBA5D5DE776
:102E10003219192BE6737395C06060A019818198EF
:102E20009E4F4FD1A3DCDC7F44222266542A2A7EA7
:102E30003B9090AB0B8888838C4646CAC7EEEE2940
:102E40006BB8B8D32814143CA7DEDE79BC5E5EE212
:102E5000160B0B1DADDBDB76DBE0E03B643232565C
:102E6000743A3A4E140A0A1E924949DB0C06060AC5
:102E70004824246CB85C5CE49FC2C25DBDD3D36EB1
:102E800043ACACEFC46262A6399191A8319595A488
:102E9000D3E4E437F279798BD5E7E7328BC8C843BE
:102EA0006E373759DA6D6DB7018D8D8CB1D5D5641C
:102EB0009C4E4ED249A9A9E0D86C6CB4AC5656FAD7
:102EC000F3F4F407CFEAEA25CA6565AFF47A7A8E9F
:102ED00047AEAEE9100808186FBABAD5F07878880E
:102EE0004A25256F5C2E2E72381C1C2457A6A6F18D
:102EF00073B4B4C797C6C651CBE8E823A1DDDD7C27
:102F0000E874749C3E1F1F21964B4BDD61BDBDDCF8
:102F10000D8B8B860F8A8A85E07070907C3E3E42D6
:102F200071B5B5C4CC6666AA904848D806030305B7
:102F3000F7F6F6011C0E0E12C26161A36A35355F09
:102F4000AE5757F969B9B9D01786869199C1C1585A
:102F50003A1D1D27279E9EB9D9E1E138EBF8F813F9
:102F60002B9898B322111133D26969BBA9D9D970B2
:102F7000078E8E89339494A72D9B9BB63C1E1E22F0
:102F800015878792C9E9E92087CECE49AA5555FF12
:102F900050282878A5DFDF7A038C8C8F59A1A1F8FF
:102FA000098989801A0D0D1765BFBFDAD7E6E631AA
:102FB000844242C6D06868B8824141C3299999B019
:102FC0005A2D2D771E0F0F117BB0B0CBA85454FC97
:102FD0006DBBBBD62C16163A6363A5C67C7C84F801
:102FE000777799EE7B7B8DF6F2F20DFF6B6BBDD69A
:102FF0006F6FB1DEC5C554913030506001010302DE
:103000006767A9CE2B2B7D56FEFE19E7D7D762B591
:10301000ABABE64D76769AECCACA458F82829D1F8D
:10302000C9C940897D7D87FAFAFA15EF5959EBB283
:103030004747C98EF0F00BFBADADEC41D4D467B37C
:10304000A2A2FD5FAFAFEA459C9CBF23A4A4F753A7
:10305000727296E4C0C05B9BB7B7C275FDFD1CE100
:103060009393AE3D26266A4C36365A6C3F3F417EDE
:10307000F7F702F5CCCC4F8334345C68A5A5F45146
:10308000E5E534D1F1F108F9717193E2D8D873AB69
:103090003131536215153F2A04040C08C7C75295F5
:1030A00023236546C3C35E9D181828309696A13722
:1030B00005050F0A9A9AB52F0707090E1212362432
:1030C00080809B1BE2E23DDFEBEB26CD2727694E9C
:1030D000B2B2CD7F75759FEA09091B1283839E1DCD
:1030E0002C2C74581A1A2E341B1B2D366E6EB2DC23
:1030F0005A5AEEB4A0A0FB5B5252F6A43B3B4D766D
:10310000D6D661B7B3B3CE7D29297B52E3E33EDD4A
:103110002F2F715E848497135353F5A6D1D168B9CC
:1031200000000000EDED2CC120206040FCFC1FE3FE
:10313000B1B1C8795B5BEDB66A6ABED4CBCB468DC4
:10314000BEBED96739394B724A4ADE944C4CD4988A
:103150005858E8B0CFCF4A85D0D06BBBEFEF2AC527
:10316000AAAAE54FFBFB16ED4343C5864D4DD79A02
:1031700033335566858594114545CF8AF9F910E9B1
:10318000020206047F7F81FE5050F0A03C3C447850
:103190009F9FBA25A8A8E34B5151F3A2A3A3FE5DBC
:1031A0004040C0808F8F8A059292AD3F9D9DBC218B
:1031B00038384870F5F504F1BCBCDF63B6B6C177AA
:1031C000DADA75AF2121634210103020FFFF1AE5D3
:1031D000F3F30EFDD2D26DBFCDCD4C810C0C141883
:1031E00013133526ECEC2FC35F5FE1BE9797A23532
:1031F0004444CC881717392EC4C45793A7A7F25557
:103200007E7E82FC3D3D477A6464ACC85D5DE7BA72
:1032100019192B32737395E66060A0C081819819EB
:103220004F4FD19EDCDC7FA3222266442A2A7E54A3
:103230009090AB3B8888830B4646CA8CEEEE29C73C
:10324000B8B8D36B14143C28DEDE79A75E5EE2BC0E
:103250000B0B1D16DBDB76ADE0E03BDB3232566458
:103260003A3A4E740A0A1E144949DB9206060A0CC1
:1032700024246C485C5CE4B8C2C25D9FD3D36EBDAD
:10328000ACACEF436262A6C49191A8399595A43184
:10329000E4E437D379798BF2E7E732D5C8C8438BBA
:1032A0003737596E6D6DB7DA8D8D8C01D5D564B118
:1032B0004E4ED29CA9A9E0496C6CB4D85656FAACD3
:1032C000F4F407F3EAEA25CF6565AFCA7A7A8EF49B
:1032D000AEAEE94708081810BABAD56F787888F00A
:1032E00025256F4A2E2E725C1C1C2438A6A6F15789
:1032F000B4B4C773C6C65197E8E823CBDDDD7CA123
:1033000074749CE81F1F213E4B4BDD96BDBDDC61F4
:103310008B8B860D8A8A850F707090E03E3E427CD2
:10332000B5B5C4716666AACC4848D89003030506B3
:10333000F6F601F70E0E121C6161A3C235355F6A05
:103340005757F9AEB9B9D06986869117C1C1589956
:103350001D1D273A9E9EB927E1E138D9F8F813EBF5
:103360009898B32B111133226969BBD2D9D970A9AE
:103370008E8E89079494A7339B9BB62D1E1E223CEC
:1033800087879215E9E920C9CECE49875555FFAA0E
:1033900028287850DFDF7AA58C8C8F03A1A1F859FB
:1033A000898980090D0D171ABFBFDA65E6E631D7A6
:1033B0004242C6846868B8D04141C3829999B02915
:1033C0002D2D775A0F0F111EB0B0CB7B5454FCA893
:1033D000BBBBD66D16163A2CA5C6636384F87C7CFD
:1033E00099EE77778DF67B7B0DFFF2F2BDD66B6B96
:1033F000B1DE6F6F5491C5C55060303003020101DA
:10340000A9CE67677D562B2B19E7FEFE62B5D7D78D
:10341000E64DABAB9AEC7676458FCACA9D1F828289
:103420004089C9C987FA7D7D15EFFAFAEBB259597F
:10343000C98E47470BFBF0F0EC41ADAD67B3D4D478
:10344000FD5FA2A2EA45AFAFBF239C9CF753A4A4A3
:1034500096E472725B9BC0C0C275B7B71CE1FDFDFC
:10346000AE3D93936A4C26265A6C3636417E3F3FDA
:1034700002F5F7F74F83CCCC5C683434F451A5A542
:1034800034D1E5E508F9F1F193E2717173ABD8D865
:10349000536231313F2A15150C0804045295C7C7F1
:1034A000654623235E9DC3C328301818A13796961E
:1034B0000F0A0505B52F9A9A090E0707362412122E
:1034C0009B1B80803DDFE2E226CDEBEB694E272798
:1034D000CD7FB2B29FEA75751B1209099E1D8383C9
:1034E00074582C2C2E341A1A2D361B1BB2DC6E6E1F
:1034F000EEB45A5AFB5BA0A0F6A452524D763B3B69
:1035000061B7D6D6CE7DB3B37B5229293EDDE3E346
:10351000715E2F2F97138484F5A6535368B9D1D1C8
:10352000000000002CC1EDED604020201FE3FCFCFA
:10353000C879B1B1EDB65B5BBED46A6A468DCBCBC0
:10354000D967BEBE4B723939DE944A4AD4984C4C86
:10355000E8B058584A85CFCF6BBBD0D02AC5EFEF23
:10356000E54FAAAA16EDFBFBC5864343D79A4D4DFE
:103570005566333394118585CF8A454510E9F9F9AD
:103580000604020281FE7F7FF0A0505044783C3C4C
:10359000BA259F9FE34BA8A8F3A25151FE5DA3A3B8
:1035A000C08040408A058F8FAD3F9292BC219D9D87
:1035B0004870383804F1F5F5DF63BCBCC177B6B6A6
:1035C00075AFDADA63422121302010101AE5FFFFCF
:1035D0000EFDF3F36DBFD2D24C81CDCD14180C0C7F
:1035E000352613132FC3ECECE1BE5F5FA23597972E
:1035F000CC884444392E17175793C4C4F255A7A753
:1036000082FC7E7E477A3D3DACC86464E7BA5D5D6E
:103610002B32191995E67373A0C0606098198181E7
:10362000D19E4F4F7FA3DCDC664422227E542A2A9F
:10363000AB3B9090830B8888CA8C464629C7EEEE38
:10364000D36BB8B83C28141479A7DEDEE2BC5E5E0A
:103650001D160B0B76ADDBDB3BDBE0E05664323254
:103660004E743A3A1E140A0ADB9249490A0C0606BD
:103670006C482424E4B85C5C5D9FC2C26EBDD3D3A9
:10368000EF43ACACA6C46262A8399191A431959580
:1036900037D3E4E48BF2797932D5E7E7438BC8C8B6
:1036A000596E3737B7DA6D6D8C018D8D64B1D5D514
:1036B000D29C4E4EE049A9A9B4D86C6CFAAC5656CF
:1036C00007F3F4F425CFEAEAAFCA65658EF47A7A97
:1036D000E947AEAE18100808D56FBABA88F0787806
:1036E0006F4A2525725C2E2E24381C1CF157A6A685
:1036F000C773B4B45197C6C623CBE8E87CA1DDDD1F
:103700009CE87474213E1F1FDD964B4BDC61BDBDF0
:10371000860D8B8B850F8A8A90E07070427C3E3ECE
:10372000C471B5B5AACC6666D890484805060303AF
:1037300001F7F6F6121C0E0EA3C261615F6A353501
:10374000F9AE5757D069B9B9911786865899C1C152
:10375000273A1D1DB9279E9E38D9E1E113EBF8F8F1
:10376000B32B989833221111BBD2696970A9D9D9AA
:1037700089078E8EA7339494B62D9B9B223C1E1EE8
:103780009215878720C9E9E94987CECEFFAA55550A
:10379000785028287AA5DFDF8F038C8CF859A1A1F7
:1037A00080098989171A0D0DDA65BFBF31D7E6E6A2
:1037B000C6844242B8D06868C3824141B029999911
:1037C000775A2D2D111E0F0FCB7BB0B0FCA854548F
:1037D000D66DBBBB3A2C161663A5C6637C84F87CF9
:1037E0007799EE777B8DF67BF20DFFF26BBDD66B92
:1037F0006FB1DE6FC55491C53050603001030201D6
:1038000067A9CE672B7D562BFE19E7FED762B5D789
:10381000ABE64DAB769AEC76CA458FCA829D1F8285
:10382000C94089C97D87FA7DFA15EFFA59EBB2597B
:1038300047C98E47F00BFBF0ADEC41ADD467B3D474
:10384000A2FD5FA2AFEA45AF9CBF239CA4F753A49F
:103850007296E472C05B9BC0B7C275B7FD1CE1FDF8
:1038600093AE3D93266A4C26365A6C363F417E3FD6
:10387000F702F5F7CC4F83CC345C6834A5F451A53E
:10388000E534D1E5F108F9F17193E271D873ABD861
:1038900031536231153F2A15040C0804C75295C7ED
:1038A00023654623C35E9DC31828301896A137961A
:1038B000050F0A059AB52F9A07090E07123624122A
:1038C000809B1B80E23DDFE2EB26CDEB27694E2794
:1038D000B2CD7FB2759FEA75091B1209839E1D83C5
:1038E0002C74582C1A2E341A1B2D361B6EB2DC6E1B
:1038F0005AEEB45AA0FB5BA052F6A4523B4D763B65
:10390000D661B7D6B3CE7DB3297B5229E33EDDE342
:103910002F715E2F8497138453F5A653D168B9D1C4
:1039200000000000ED2CC1ED20604020FC1FE3FCF6
:10393000B1C879B15BEDB65B6ABED46ACB468DCBBC
:10394000BED967BE394B72394ADE944A4CD4984C82
:1039500058E8B058CF4A85CFD06BBBD0EF2AC5EF1F
:10396000AAE54FAAFB16EDFB43C586434DD79A4DFA
:10397000335566338594118545CF8A45F910E9F9A9
:10398000020604027F81FE7F50F0A0503C44783C48
:103990009FBA259FA8E34BA851F3A251A3FE5DA3B4
:1039A00040C080408F8A058F92AD3F929DBC219D83
:1039B00038487038F504F1F5BCDF63BCB6C177B6A2
:1039C000DA75AFDA2163422110302010FF1AE5FFCB
:1039D000F30EFDF3D26DBFD2CD4C81CD0C14180C7B
:1039E00013352613EC2FC3EC5FE1BE5F97A235972A
:1039F00044CC884417392E17C45793C4A7F255A74F
:103A00007E82FC7E3D477A3D64ACC8645DE7BA5D6A
:103A1000192B32197395E67360A0C06081981981E3
:103A20004FD19E4FDC7FA3DC226644222A7E542A9B
:103A300090AB3B9088830B8846CA8C46EE29C7EE34
:103A4000B8D36BB8143C2814DE79A7DE5EE2BC5E06
:103A50000B1D160BDB76ADDBE03BDBE03256643250
:103A60003A4E743A0A1E140A49DB9249060A0C06B9
:103A7000246C48245CE4B85CC25D9FC2D36EBDD3A5
:103A8000ACEF43AC62A6C46291A8399195A431957C
:103A9000E437D3E4798BF279E732D5E7C8438BC8B2
:103AA00037596E376DB7DA6D8D8C018DD564B1D510
:103AB0004ED29C4EA9E049A96CB4D86C56FAAC56CB
:103AC000F407F3F4EA25CFEA65AFCA657A8EF47A93
:103AD000AEE947AE08181008BAD56FBA7888F07802
:103AE000256F4A252E725C2E1C24381CA6F157A681
:103AF000B4C773B4C65197C6E823CBE8DD7CA1DD1B
:103B0000749CE8741F213E1F4BDD964BBDDC61BDEC
:103B10008B860D8B8A850F8A7090E0703E427C3ECA
:103B2000B5C471B566AACC6648D8904803050603AB
:103B3000F601F7F60E121C0E61A3C261355F6A35FD
:103B400057F9AE57B9D069B986911786C15899C14E
:103B50001D273A1D9EB9279EE138D9E1F813EBF8ED
:103B600098B32B981133221169BBD269D970A9D9A6
:103B70008E89078E94A733949BB62D9B1E223C1EE4
:103B800087921587E920C9E9CE4987CE55FFAA5506
:103B900028785028DF7AA5DF8C8F038CA1F859A1F3
:103BA000898009890D171A0DBFDA65BFE631D7E69E
:103BB00042C6844268B8D06841C3824199B029990D
:103BC0002D775A2D0F111E0FB0CB7BB054FCA8548B
:103BD000BBD66DBB163A2C1652096AD53036A538BD
:103BE000BF40A39E81F3D7FB7CE339829B2FFF87E5
:103BF000348E4344C4DEE9CB547B9432A6C2233DC9
:103C0000EE4C950B42FAC34E082EA16628D924B279
:103C1000765BA2496D8BD12572F8F664866898169A
:103C2000D4A45CCC5D65B6926C704850FDEDB9DAF9
:103C30005E154657A78D9D8490D8AB008CBCD30AE7
:103C4000F7E45805B8B34506D02C1E8FCA3F0F02C3
:103C5000C1AFBD0301138A6B3A9111414F67DCEA92
:103C600097F2CFCEF0B4E67396AC7422E7AD35850B
:103C7000E2F937E81C75DF6E47F11A711D29C58915
:103C80006FB7620EAA18BE1BFC563E4BC6D27920F7
:103C90009ADBC0FE78CD5AF41FDDA8338807C73100
:103CA000B11210592780EC5F60517FA919B54A0DF8
:103CB0002DE57A9F93C99CEFA0E03B4DAE2AF5B06D
:103CC000C8EBBB3C83539961172B047EBA77D62689
:103CD000E169146355210C7D100000202B7E151620
:103CE00028AED2A6ABF7158809CF4F3C00000000E4
:083CF000751A0008F10100083B
:043CF800C9010008F6
:103CFC000A0000000000000010000020000000007E
:103D0C0000000000FC02002064030020CC03002013
:103D1C000000000000000000000000000000000097
:103D2C000000000000000000000000000000000087
:103D3C000000000000000000000000000000000077
:103D4C000000000000000000000000000000000067
:103D5C000000000000000000000000000000000057
:103D6C000000000000000000000000000000000047
:103D7C000000000000000000000000000000000037
:103D8C000000000000000000000000000000000027
:103D9C000000000000000000000000000000000017
:103DAC000000000000000000010000000000000006
:103DBC000E33CDAB34126DE6ECDE05000B000000CB
:103DCC0000000000000000000000000000000000E7
:103DDC0000000000000000000000000000000000D7
:103DEC0000000000000000000000000000000000C7
:103DFC0000000000000000000000000000000000B7
:0400000508001A29AC
:00000001FF
